{
  "contractName": "Collectibles",
  "abi": [
    {
      "constant": true,
      "inputs": [
        {
          "name": "interfaceId",
          "type": "bytes4"
        }
      ],
      "name": "supportsInterface",
      "outputs": [
        {
          "name": "",
          "type": "bool"
        }
      ],
      "payable": false,
      "stateMutability": "view",
      "type": "function"
    },
    {
      "constant": true,
      "inputs": [],
      "name": "name",
      "outputs": [
        {
          "name": "",
          "type": "string"
        }
      ],
      "payable": false,
      "stateMutability": "view",
      "type": "function"
    },
    {
      "constant": true,
      "inputs": [
        {
          "name": "tokenId",
          "type": "uint256"
        }
      ],
      "name": "getApproved",
      "outputs": [
        {
          "name": "",
          "type": "address"
        }
      ],
      "payable": false,
      "stateMutability": "view",
      "type": "function"
    },
    {
      "constant": false,
      "inputs": [
        {
          "name": "to",
          "type": "address"
        },
        {
          "name": "tokenId",
          "type": "uint256"
        }
      ],
      "name": "approve",
      "outputs": [],
      "payable": false,
      "stateMutability": "nonpayable",
      "type": "function"
    },
    {
      "constant": true,
      "inputs": [],
      "name": "totalSupply",
      "outputs": [
        {
          "name": "",
          "type": "uint256"
        }
      ],
      "payable": false,
      "stateMutability": "view",
      "type": "function"
    },
    {
      "constant": false,
      "inputs": [
        {
          "name": "from",
          "type": "address"
        },
        {
          "name": "to",
          "type": "address"
        },
        {
          "name": "tokenId",
          "type": "uint256"
        }
      ],
      "name": "transferFrom",
      "outputs": [],
      "payable": false,
      "stateMutability": "nonpayable",
      "type": "function"
    },
    {
      "constant": true,
      "inputs": [
        {
          "name": "owner",
          "type": "address"
        },
        {
          "name": "index",
          "type": "uint256"
        }
      ],
      "name": "tokenOfOwnerByIndex",
      "outputs": [
        {
          "name": "",
          "type": "uint256"
        }
      ],
      "payable": false,
      "stateMutability": "view",
      "type": "function"
    },
    {
      "constant": true,
      "inputs": [],
      "name": "contract_owner",
      "outputs": [
        {
          "name": "",
          "type": "address"
        }
      ],
      "payable": false,
      "stateMutability": "view",
      "type": "function"
    },
    {
      "constant": false,
      "inputs": [
        {
          "name": "from",
          "type": "address"
        },
        {
          "name": "to",
          "type": "address"
        },
        {
          "name": "tokenId",
          "type": "uint256"
        }
      ],
      "name": "safeTransferFrom",
      "outputs": [],
      "payable": false,
      "stateMutability": "nonpayable",
      "type": "function"
    },
    {
      "constant": true,
      "inputs": [
        {
          "name": "index",
          "type": "uint256"
        }
      ],
      "name": "tokenByIndex",
      "outputs": [
        {
          "name": "",
          "type": "uint256"
        }
      ],
      "payable": false,
      "stateMutability": "view",
      "type": "function"
    },
    {
      "constant": true,
      "inputs": [
        {
          "name": "tokenId",
          "type": "uint256"
        }
      ],
      "name": "ownerOf",
      "outputs": [
        {
          "name": "",
          "type": "address"
        }
      ],
      "payable": false,
      "stateMutability": "view",
      "type": "function"
    },
    {
      "constant": true,
      "inputs": [
        {
          "name": "owner",
          "type": "address"
        }
      ],
      "name": "balanceOf",
      "outputs": [
        {
          "name": "",
          "type": "uint256"
        }
      ],
      "payable": false,
      "stateMutability": "view",
      "type": "function"
    },
    {
      "constant": true,
      "inputs": [],
      "name": "symbol",
      "outputs": [
        {
          "name": "",
          "type": "string"
        }
      ],
      "payable": false,
      "stateMutability": "view",
      "type": "function"
    },
    {
      "constant": false,
      "inputs": [
        {
          "name": "to",
          "type": "address"
        },
        {
          "name": "approved",
          "type": "bool"
        }
      ],
      "name": "setApprovalForAll",
      "outputs": [],
      "payable": false,
      "stateMutability": "nonpayable",
      "type": "function"
    },
    {
      "constant": false,
      "inputs": [
        {
          "name": "from",
          "type": "address"
        },
        {
          "name": "to",
          "type": "address"
        },
        {
          "name": "tokenId",
          "type": "uint256"
        },
        {
          "name": "_data",
          "type": "bytes"
        }
      ],
      "name": "safeTransferFrom",
      "outputs": [],
      "payable": false,
      "stateMutability": "nonpayable",
      "type": "function"
    },
    {
      "constant": true,
      "inputs": [
        {
          "name": "tokenId",
          "type": "uint256"
        }
      ],
      "name": "tokenURI",
      "outputs": [
        {
          "name": "",
          "type": "string"
        }
      ],
      "payable": false,
      "stateMutability": "view",
      "type": "function"
    },
    {
      "constant": true,
      "inputs": [
        {
          "name": "owner",
          "type": "address"
        },
        {
          "name": "operator",
          "type": "address"
        }
      ],
      "name": "isApprovedForAll",
      "outputs": [
        {
          "name": "",
          "type": "bool"
        }
      ],
      "payable": false,
      "stateMutability": "view",
      "type": "function"
    },
    {
      "inputs": [],
      "payable": false,
      "stateMutability": "nonpayable",
      "type": "constructor"
    },
    {
      "anonymous": false,
      "inputs": [
        {
          "indexed": false,
          "name": "artid",
          "type": "uint256"
        }
      ],
      "name": "AddArt",
      "type": "event"
    },
    {
      "anonymous": false,
      "inputs": [
        {
          "indexed": false,
          "name": "artid",
          "type": "uint256"
        },
        {
          "indexed": false,
          "name": "status",
          "type": "bool"
        }
      ],
      "name": "SwitchSaleStatus",
      "type": "event"
    },
    {
      "anonymous": false,
      "inputs": [
        {
          "indexed": true,
          "name": "from",
          "type": "address"
        },
        {
          "indexed": true,
          "name": "to",
          "type": "address"
        },
        {
          "indexed": true,
          "name": "tokenId",
          "type": "uint256"
        }
      ],
      "name": "Transfer",
      "type": "event"
    },
    {
      "anonymous": false,
      "inputs": [
        {
          "indexed": true,
          "name": "owner",
          "type": "address"
        },
        {
          "indexed": true,
          "name": "approved",
          "type": "address"
        },
        {
          "indexed": true,
          "name": "tokenId",
          "type": "uint256"
        }
      ],
      "name": "Approval",
      "type": "event"
    },
    {
      "anonymous": false,
      "inputs": [
        {
          "indexed": true,
          "name": "owner",
          "type": "address"
        },
        {
          "indexed": true,
          "name": "operator",
          "type": "address"
        },
        {
          "indexed": false,
          "name": "approved",
          "type": "bool"
        }
      ],
      "name": "ApprovalForAll",
      "type": "event"
    },
    {
      "constant": false,
      "inputs": [],
      "name": "switchContractWorking",
      "outputs": [],
      "payable": false,
      "stateMutability": "nonpayable",
      "type": "function"
    },
    {
      "constant": true,
      "inputs": [],
      "name": "getartlength",
      "outputs": [
        {
          "name": "",
          "type": "uint256"
        }
      ],
      "payable": false,
      "stateMutability": "view",
      "type": "function"
    },
    {
      "constant": true,
      "inputs": [
        {
          "name": "id",
          "type": "uint256"
        }
      ],
      "name": "getArt",
      "outputs": [
        {
          "name": "",
          "type": "uint256"
        },
        {
          "name": "",
          "type": "string"
        },
        {
          "name": "",
          "type": "string"
        },
        {
          "name": "",
          "type": "string"
        },
        {
          "name": "",
          "type": "address"
        },
        {
          "name": "",
          "type": "uint256"
        },
        {
          "name": "",
          "type": "address"
        },
        {
          "name": "",
          "type": "bool"
        }
      ],
      "payable": false,
      "stateMutability": "view",
      "type": "function"
    },
    {
      "constant": false,
      "inputs": [
        {
          "name": "name",
          "type": "string"
        },
        {
          "name": "desc",
          "type": "string"
        },
        {
          "name": "image_url",
          "type": "string"
        },
        {
          "name": "price",
          "type": "uint256"
        }
      ],
      "name": "convert_art",
      "outputs": [],
      "payable": false,
      "stateMutability": "nonpayable",
      "type": "function"
    },
    {
      "constant": true,
      "inputs": [
        {
          "name": "_owner",
          "type": "address"
        }
      ],
      "name": "ownerArtsCount",
      "outputs": [
        {
          "name": "",
          "type": "uint256[]"
        }
      ],
      "payable": false,
      "stateMutability": "view",
      "type": "function"
    },
    {
      "constant": false,
      "inputs": [
        {
          "name": "id",
          "type": "uint256"
        }
      ],
      "name": "buy_art",
      "outputs": [],
      "payable": true,
      "stateMutability": "payable",
      "type": "function"
    },
    {
      "constant": false,
      "inputs": [
        {
          "name": "id",
          "type": "uint256"
        },
        {
          "name": "price",
          "type": "uint256"
        }
      ],
      "name": "price_update",
      "outputs": [],
      "payable": false,
      "stateMutability": "nonpayable",
      "type": "function"
    },
    {
      "constant": false,
      "inputs": [
        {
          "name": "id",
          "type": "uint256"
        }
      ],
      "name": "switchSaleStatus",
      "outputs": [],
      "payable": false,
      "stateMutability": "nonpayable",
      "type": "function"
    }
  ],
  "bytecode": "0x60806040526001600c60146101000a81548160ff0219169083151502179055503480156200002c57600080fd5b506040518060400160405280600681526020017f44696741727400000000000000000000000000000000000000000000000000008152506040518060400160405280600381526020017f44414300000000000000000000000000000000000000000000000000000000008152508181620000b36301ffc9a760e01b6200017860201b60201c565b620000cb6380ac58cd60e01b6200017860201b60201c565b620000e363780e9d6360e01b6200017860201b60201c565b8160099080519060200190620000fb92919062000281565b5080600a90805190602001906200011492919062000281565b506200012d635b5e139f60e01b6200017860201b60201c565b5050505033600c60006101000a81548173ffffffffffffffffffffffffffffffffffffffff021916908373ffffffffffffffffffffffffffffffffffffffff16021790555062000330565b63ffffffff60e01b817bffffffffffffffffffffffffffffffffffffffffffffffffffffffff1916141562000215576040517f08c379a000000000000000000000000000000000000000000000000000000000815260040180806020018281038252601c8152602001807f4552433136353a20696e76616c696420696e746572666163652069640000000081525060200191505060405180910390fd5b6001600080837bffffffffffffffffffffffffffffffffffffffffffffffffffffffff19167bffffffffffffffffffffffffffffffffffffffffffffffffffffffff1916815260200190815260200160002060006101000a81548160ff02191690831515021790555050565b828054600181600116156101000203166002900490600052602060002090601f016020900481019282601f10620002c457805160ff1916838001178555620002f5565b82800160010185558215620002f5579182015b82811115620002f4578251825591602001919060010190620002d7565b5b50905062000304919062000308565b5090565b6200032d91905b80821115620003295760008160009055506001016200030f565b5090565b90565b61355a80620003406000396000f3fe6080604052600436106101665760003560e01c806370a08231116100d1578063b88d4fde1161008a578063f6131a7211610064578063f6131a7214610caf578063f7eee2f014610eaf578063f8d6ab7014610ec6578063f9cac5af14610f0b57610166565b8063b88d4fde14610a60578063c87b56dd14610b72578063e985e9c514610c2657610166565b806370a082311461062f5780638c4796c7146106945780638e9728aa1461089f57806395d89b41146108cd578063a22cb4651461095d578063a7c578a9146109ba57610166565b806323b872dd1161012357806323b872dd146103a95780632f745c5914610424578063384f58eb1461049357806342842e0e146104ea5780634f6ccce7146105655780636352211e146105b457610166565b806301ffc9a71461016b57806306fdde03146101dd578063081812fc1461026d578063095ea7b3146102e857806318160ddd146103435780631b3090481461036e575b600080fd5b34801561017757600080fd5b506101c36004803603602081101561018e57600080fd5b8101908080357bffffffffffffffffffffffffffffffffffffffffffffffffffffffff19169060200190929190505050610f36565b604051808215151515815260200191505060405180910390f35b3480156101e957600080fd5b506101f2610f9d565b6040518080602001828103825283818151815260200191508051906020019080838360005b83811015610232578082015181840152602081019050610217565b50505050905090810190601f16801561025f5780820380516001836020036101000a031916815260200191505b509250505060405180910390f35b34801561027957600080fd5b506102a66004803603602081101561029057600080fd5b810190808035906020019092919050505061103f565b604051808273ffffffffffffffffffffffffffffffffffffffff1673ffffffffffffffffffffffffffffffffffffffff16815260200191505060405180910390f35b3480156102f457600080fd5b506103416004803603604081101561030b57600080fd5b81019080803573ffffffffffffffffffffffffffffffffffffffff169060200190929190803590602001909291905050506110da565b005b34801561034f57600080fd5b506103586112b3565b6040518082815260200191505060405180910390f35b34801561037a57600080fd5b506103a76004803603602081101561039157600080fd5b81019080803590602001909291905050506112c0565b005b3480156103b557600080fd5b50610422600480360360608110156103cc57600080fd5b81019080803573ffffffffffffffffffffffffffffffffffffffff169060200190929190803573ffffffffffffffffffffffffffffffffffffffff16906020019092919080359060200190929190505050611430565b005b34801561043057600080fd5b5061047d6004803603604081101561044757600080fd5b81019080803573ffffffffffffffffffffffffffffffffffffffff1690602001909291908035906020019092919050505061149f565b6040518082815260200191505060405180910390f35b34801561049f57600080fd5b506104a861155e565b604051808273ffffffffffffffffffffffffffffffffffffffff1673ffffffffffffffffffffffffffffffffffffffff16815260200191505060405180910390f35b3480156104f657600080fd5b506105636004803603606081101561050d57600080fd5b81019080803573ffffffffffffffffffffffffffffffffffffffff169060200190929190803573ffffffffffffffffffffffffffffffffffffffff16906020019092919080359060200190929190505050611584565b005b34801561057157600080fd5b5061059e6004803603602081101561058857600080fd5b81019080803590602001909291905050506115a4565b6040518082815260200191505060405180910390f35b3480156105c057600080fd5b506105ed600480360360208110156105d757600080fd5b8101908080359060200190929190505050611624565b604051808273ffffffffffffffffffffffffffffffffffffffff1673ffffffffffffffffffffffffffffffffffffffff16815260200191505060405180910390f35b34801561063b57600080fd5b5061067e6004803603602081101561065257600080fd5b81019080803573ffffffffffffffffffffffffffffffffffffffff1690602001909291905050506116ec565b6040518082815260200191505060405180910390f35b3480156106a057600080fd5b506106cd600480360360208110156106b757600080fd5b81019080803590602001909291905050506117c1565b604051808981526020018060200180602001806020018873ffffffffffffffffffffffffffffffffffffffff1673ffffffffffffffffffffffffffffffffffffffff1681526020018781526020018673ffffffffffffffffffffffffffffffffffffffff1673ffffffffffffffffffffffffffffffffffffffff1681526020018515151515815260200184810384528b818151815260200191508051906020019080838360005b8381101561078f578082015181840152602081019050610774565b50505050905090810190601f1680156107bc5780820380516001836020036101000a031916815260200191505b5084810383528a818151815260200191508051906020019080838360005b838110156107f55780820151818401526020810190506107da565b50505050905090810190601f1680156108225780820380516001836020036101000a031916815260200191505b50848103825289818151815260200191508051906020019080838360005b8381101561085b578082015181840152602081019050610840565b50505050905090810190601f1680156108885780820380516001836020036101000a031916815260200191505b509b50505050505050505050505060405180910390f35b6108cb600480360360208110156108b557600080fd5b8101908080359060200190929190505050611b0f565b005b3480156108d957600080fd5b506108e2611cc7565b6040518080602001828103825283818151815260200191508051906020019080838360005b83811015610922578082015181840152602081019050610907565b50505050905090810190601f16801561094f5780820380516001836020036101000a031916815260200191505b509250505060405180910390f35b34801561096957600080fd5b506109b86004803603604081101561098057600080fd5b81019080803573ffffffffffffffffffffffffffffffffffffffff169060200190929190803515159060200190929190505050611d69565b005b3480156109c657600080fd5b50610a09600480360360208110156109dd57600080fd5b81019080803573ffffffffffffffffffffffffffffffffffffffff169060200190929190505050611f0c565b6040518080602001828103825283818151815260200191508051906020019060200280838360005b83811015610a4c578082015181840152602081019050610a31565b505050509050019250505060405180910390f35b348015610a6c57600080fd5b50610b7060048036036080811015610a8357600080fd5b81019080803573ffffffffffffffffffffffffffffffffffffffff169060200190929190803573ffffffffffffffffffffffffffffffffffffffff1690602001909291908035906020019092919080359060200190640100000000811115610aea57600080fd5b820183602082011115610afc57600080fd5b80359060200191846001830284011164010000000083111715610b1e57600080fd5b91908080601f016020809104026020016040519081016040528093929190818152602001838380828437600081840152601f19601f820116905080830192505050505050509192919290505050611f6d565b005b348015610b7e57600080fd5b50610bab60048036036020811015610b9557600080fd5b8101908080359060200190929190505050611fdf565b6040518080602001828103825283818151815260200191508051906020019080838360005b83811015610beb578082015181840152602081019050610bd0565b50505050905090810190601f168015610c185780820380516001836020036101000a031916815260200191505b509250505060405180910390f35b348015610c3257600080fd5b50610c9560048036036040811015610c4957600080fd5b81019080803573ffffffffffffffffffffffffffffffffffffffff169060200190929190803573ffffffffffffffffffffffffffffffffffffffff1690602001909291905050506120f2565b604051808215151515815260200191505060405180910390f35b348015610cbb57600080fd5b50610ead60048036036080811015610cd257600080fd5b8101908080359060200190640100000000811115610cef57600080fd5b820183602082011115610d0157600080fd5b80359060200191846001830284011164010000000083111715610d2357600080fd5b91908080601f016020809104026020016040519081016040528093929190818152602001838380828437600081840152601f19601f82011690508083019250505050505050919291929080359060200190640100000000811115610d8657600080fd5b820183602082011115610d9857600080fd5b80359060200191846001830284011164010000000083111715610dba57600080fd5b91908080601f016020809104026020016040519081016040528093929190818152602001838380828437600081840152601f19601f82011690508083019250505050505050919291929080359060200190640100000000811115610e1d57600080fd5b820183602082011115610e2f57600080fd5b80359060200191846001830284011164010000000083111715610e5157600080fd5b91908080601f016020809104026020016040519081016040528093929190818152602001838380828437600081840152601f19601f82011690508083019250505050505050919291929080359060200190929190505050612186565b005b348015610ebb57600080fd5b50610ec46123aa565b005b348015610ed257600080fd5b50610f0960048036036040811015610ee957600080fd5b81019080803590602001909291908035906020019092919050505061245e565b005b348015610f1757600080fd5b50610f206124fd565b6040518082815260200191505060405180910390f35b6000806000837bffffffffffffffffffffffffffffffffffffffffffffffffffffffff19167bffffffffffffffffffffffffffffffffffffffffffffffffffffffff1916815260200190815260200160002060009054906101000a900460ff169050919050565b606060098054600181600116156101000203166002900480601f0160208091040260200160405190810160405280929190818152602001828054600181600116156101000203166002900480156110355780601f1061100a57610100808354040283529160200191611035565b820191906000526020600020905b81548152906001019060200180831161101857829003601f168201915b5050505050905090565b600061104a8261250f565b61109f576040517f08c379a000000000000000000000000000000000000000000000000000000000815260040180806020018281038252602c81526020018061342d602c913960400191505060405180910390fd5b6002600083815260200190815260200160002060009054906101000a900473ffffffffffffffffffffffffffffffffffffffff169050919050565b60006110e582611624565b90508073ffffffffffffffffffffffffffffffffffffffff168373ffffffffffffffffffffffffffffffffffffffff16141561116c576040517f08c379a00000000000000000000000000000000000000000000000000000000081526004018080602001828103825260218152602001806134b16021913960400191505060405180910390fd5b8073ffffffffffffffffffffffffffffffffffffffff163373ffffffffffffffffffffffffffffffffffffffff1614806111ac57506111ab81336120f2565b5b611201576040517f08c379a00000000000000000000000000000000000000000000000000000000081526004018080602001828103825260388152602001806133a26038913960400191505060405180910390fd5b826002600084815260200190815260200160002060006101000a81548173ffffffffffffffffffffffffffffffffffffffff021916908373ffffffffffffffffffffffffffffffffffffffff160217905550818373ffffffffffffffffffffffffffffffffffffffff168273ffffffffffffffffffffffffffffffffffffffff167f8c5be1e5ebec7d5bd14f71427d1e84f3dd0314c0f7b2291e5b200ac8c7c3b92560405160405180910390a4505050565b6000600780549050905090565b803373ffffffffffffffffffffffffffffffffffffffff16600d82815481106112e557fe5b906000526020600020906007020160060160009054906101000a900473ffffffffffffffffffffffffffffffffffffffff1673ffffffffffffffffffffffffffffffffffffffff161461133757600080fd5b6000600d838154811061134657fe5b906000526020600020906007020160060160149054906101000a900460ff1690506001151581151514156113b0576000600d848154811061138357fe5b906000526020600020906007020160060160146101000a81548160ff0219169083151502179055506113e8565b6001600d84815481106113bf57fe5b906000526020600020906007020160060160146101000a81548160ff0219169083151502179055505b7f15c37d56366e527bc4441a021373c0ff77b171e4ee452f3b39e611a53d328d78838260405180838152602001821515151581526020019250505060405180910390a1505050565b61143a3382612581565b61148f576040517f08c379a00000000000000000000000000000000000000000000000000000000081526004018080602001828103825260318152602001806134d26031913960400191505060405180910390fd5b61149a838383612675565b505050565b60006114aa836116ec565b8210611501576040517f08c379a000000000000000000000000000000000000000000000000000000000815260040180806020018281038252602b8152602001806132f5602b913960400191505060405180910390fd5b600560008473ffffffffffffffffffffffffffffffffffffffff1673ffffffffffffffffffffffffffffffffffffffff168152602001908152602001600020828154811061154b57fe5b9060005260206000200154905092915050565b600c60009054906101000a900473ffffffffffffffffffffffffffffffffffffffff1681565b61159f83838360405180602001604052806000815250611f6d565b505050565b60006115ae6112b3565b8210611605576040517f08c379a000000000000000000000000000000000000000000000000000000000815260040180806020018281038252602c815260200180613503602c913960400191505060405180910390fd5b6007828154811061161257fe5b90600052602060002001549050919050565b6000806001600084815260200190815260200160002060009054906101000a900473ffffffffffffffffffffffffffffffffffffffff169050600073ffffffffffffffffffffffffffffffffffffffff168173ffffffffffffffffffffffffffffffffffffffff1614156116e3576040517f08c379a00000000000000000000000000000000000000000000000000000000081526004018080602001828103825260298152602001806134046029913960400191505060405180910390fd5b80915050919050565b60008073ffffffffffffffffffffffffffffffffffffffff168273ffffffffffffffffffffffffffffffffffffffff161415611773576040517f08c379a000000000000000000000000000000000000000000000000000000000815260040180806020018281038252602a8152602001806133da602a913960400191505060405180910390fd5b6117ba600360008473ffffffffffffffffffffffffffffffffffffffff1673ffffffffffffffffffffffffffffffffffffffff168152602001908152602001600020612699565b9050919050565b600060608060606000806000806117d66131b0565b600d8a815481106117e357fe5b90600052602060002090600702016040518061010001604052908160008201548152602001600182018054600181600116156101000203166002900480601f0160208091040260200160405190810160405280929190818152602001828054600181600116156101000203166002900480156118a05780601f10611875576101008083540402835291602001916118a0565b820191906000526020600020905b81548152906001019060200180831161188357829003601f168201915b50505050508152602001600282018054600181600116156101000203166002900480601f0160208091040260200160405190810160405280929190818152602001828054600181600116156101000203166002900480156119425780601f1061191757610100808354040283529160200191611942565b820191906000526020600020905b81548152906001019060200180831161192557829003601f168201915b50505050508152602001600382018054600181600116156101000203166002900480601f0160208091040260200160405190810160405280929190818152602001828054600181600116156101000203166002900480156119e45780601f106119b9576101008083540402835291602001916119e4565b820191906000526020600020905b8154815290600101906020018083116119c757829003601f168201915b505050505081526020016004820160009054906101000a900473ffffffffffffffffffffffffffffffffffffffff1673ffffffffffffffffffffffffffffffffffffffff1673ffffffffffffffffffffffffffffffffffffffff168152602001600582015481526020016006820160009054906101000a900473ffffffffffffffffffffffffffffffffffffffff1673ffffffffffffffffffffffffffffffffffffffff1673ffffffffffffffffffffffffffffffffffffffff1681526020016006820160149054906101000a900460ff16151515158152505090508981602001518260400151836060015184608001518560a001518660c001518760e001518696508595508494508393508191509850985098509850985098509850985050919395975091939597565b600d8181548110611b1c57fe5b90600052602060002090600702016005015434811115611b3b57600080fd5b8160011515600d8281548110611b4d57fe5b906000526020600020906007020160060160149054906101000a900460ff16151514611b7857600080fd5b60011515600c60149054906101000a900460ff16151514611b9857600080fd5b6000600d8481548110611ba757fe5b906000526020600020906007020160060160009054906101000a900473ffffffffffffffffffffffffffffffffffffffff1690506000600d8581548110611bea57fe5b906000526020600020906007020160060160146101000a81548160ff0219169083151502179055508073ffffffffffffffffffffffffffffffffffffffff166108fc349081150290604051600060405180830381858888f19350505050158015611c58573d6000803e3d6000fd5b5033600d8581548110611c6757fe5b906000526020600020906007020160060160006101000a81548173ffffffffffffffffffffffffffffffffffffffff021916908373ffffffffffffffffffffffffffffffffffffffff160217905550611cc1813386612675565b50505050565b6060600a8054600181600116156101000203166002900480601f016020809104026020016040519081016040528092919081815260200182805460018160011615610100020316600290048015611d5f5780601f10611d3457610100808354040283529160200191611d5f565b820191906000526020600020905b815481529060010190602001808311611d4257829003601f168201915b5050505050905090565b3373ffffffffffffffffffffffffffffffffffffffff168273ffffffffffffffffffffffffffffffffffffffff161415611e0b576040517f08c379a00000000000000000000000000000000000000000000000000000000081526004018080602001828103825260198152602001807f4552433732313a20617070726f766520746f2063616c6c65720000000000000081525060200191505060405180910390fd5b80600460003373ffffffffffffffffffffffffffffffffffffffff1673ffffffffffffffffffffffffffffffffffffffff16815260200190815260200160002060008473ffffffffffffffffffffffffffffffffffffffff1673ffffffffffffffffffffffffffffffffffffffff16815260200190815260200160002060006101000a81548160ff0219169083151502179055508173ffffffffffffffffffffffffffffffffffffffff163373ffffffffffffffffffffffffffffffffffffffff167f17307eab39ab6107e8899845ad3d59bd9653f200f220920489ca2b5937696c3183604051808215151515815260200191505060405180910390a35050565b6060611f17826126a7565b805480602002602001604051908101604052809291908181526020018280548015611f6157602002820191906000526020600020905b815481526020019060010190808311611f4d575b50505050509050919050565b611f78848484611430565b611f84848484846126ef565b611fd9576040517f08c379a00000000000000000000000000000000000000000000000000000000081526004018080602001828103825260328152602001806133206032913960400191505060405180910390fd5b50505050565b6060611fea8261250f565b61203f576040517f08c379a000000000000000000000000000000000000000000000000000000000815260040180806020018281038252602f815260200180613482602f913960400191505060405180910390fd5b600b60008381526020019081526020016000208054600181600116156101000203166002900480601f0160208091040260200160405190810160405280929190818152602001828054600181600116156101000203166002900480156120e65780601f106120bb576101008083540402835291602001916120e6565b820191906000526020600020905b8154815290600101906020018083116120c957829003601f168201915b50505050509050919050565b6000600460008473ffffffffffffffffffffffffffffffffffffffff1673ffffffffffffffffffffffffffffffffffffffff16815260200190815260200160002060008373ffffffffffffffffffffffffffffffffffffffff1673ffffffffffffffffffffffffffffffffffffffff16815260200190815260200160002060009054906101000a900460ff16905092915050565b60011515600c60149054906101000a900460ff161515146121a657600080fd5b6000600d805490509050600d6040518061010001604052808381526020018781526020018681526020018581526020013373ffffffffffffffffffffffffffffffffffffffff1681526020018481526020013373ffffffffffffffffffffffffffffffffffffffff168152602001600015158152509080600181540180825580915050906001820390600052602060002090600702016000909192909190915060008201518160000155602082015181600101908051906020019061226c929190613223565b506040820151816002019080519060200190612289929190613223565b5060608201518160030190805190602001906122a6929190613223565b5060808201518160040160006101000a81548173ffffffffffffffffffffffffffffffffffffffff021916908373ffffffffffffffffffffffffffffffffffffffff16021790555060a0820151816005015560c08201518160060160006101000a81548173ffffffffffffffffffffffffffffffffffffffff021916908373ffffffffffffffffffffffffffffffffffffffff16021790555060e08201518160060160146101000a81548160ff02191690831515021790555050505061236c33826128d8565b7fc6317cec91ab0e12cb2a0a3193613db5b8b52e93ce7cd592a0a3e304d92d17ca816040518082815260200191505060405180910390a15050505050565b600c60009054906101000a900473ffffffffffffffffffffffffffffffffffffffff1673ffffffffffffffffffffffffffffffffffffffff163373ffffffffffffffffffffffffffffffffffffffff161461240457600080fd5b60011515600c60149054906101000a900460ff1615151415612440576000600c60146101000a81548160ff02191690831515021790555061245c565b6001600c60146101000a81548160ff0219169083151502179055505b565b813373ffffffffffffffffffffffffffffffffffffffff16600d828154811061248357fe5b906000526020600020906007020160060160009054906101000a900473ffffffffffffffffffffffffffffffffffffffff1673ffffffffffffffffffffffffffffffffffffffff16146124d557600080fd5b81600d84815481106124e357fe5b906000526020600020906007020160050181905550505050565b600080600d8054905090508091505090565b6000806001600084815260200190815260200160002060009054906101000a900473ffffffffffffffffffffffffffffffffffffffff169050600073ffffffffffffffffffffffffffffffffffffffff168173ffffffffffffffffffffffffffffffffffffffff161415915050919050565b600061258c8261250f565b6125e1576040517f08c379a000000000000000000000000000000000000000000000000000000000815260040180806020018281038252602c815260200180613376602c913960400191505060405180910390fd5b60006125ec83611624565b90508073ffffffffffffffffffffffffffffffffffffffff168473ffffffffffffffffffffffffffffffffffffffff16148061265b57508373ffffffffffffffffffffffffffffffffffffffff166126438461103f565b73ffffffffffffffffffffffffffffffffffffffff16145b8061266c575061266b81856120f2565b5b91505092915050565b6126808383836128f9565b61268a8382612b54565b6126948282612cf2565b505050565b600081600001549050919050565b6000600560008373ffffffffffffffffffffffffffffffffffffffff1673ffffffffffffffffffffffffffffffffffffffff1681526020019081526020016000209050919050565b60006127108473ffffffffffffffffffffffffffffffffffffffff16612db9565b61271d57600190506128d0565b60008473ffffffffffffffffffffffffffffffffffffffff1663150b7a02338887876040518563ffffffff1660e01b8152600401808573ffffffffffffffffffffffffffffffffffffffff1673ffffffffffffffffffffffffffffffffffffffff1681526020018473ffffffffffffffffffffffffffffffffffffffff1673ffffffffffffffffffffffffffffffffffffffff16815260200183815260200180602001828103825283818151815260200191508051906020019080838360005b838110156127f85780820151818401526020810190506127dd565b50505050905090810190601f1680156128255780820380516001836020036101000a031916815260200191505b5095505050505050602060405180830381600087803b15801561284757600080fd5b505af115801561285b573d6000803e3d6000fd5b505050506040513d602081101561287157600080fd5b8101908080519060200190929190505050905063150b7a0260e01b7bffffffffffffffffffffffffffffffffffffffffffffffffffffffff1916817bffffffffffffffffffffffffffffffffffffffffffffffffffffffff1916149150505b949350505050565b6128e28282612dcc565b6128ec8282612cf2565b6128f581612fe4565b5050565b8273ffffffffffffffffffffffffffffffffffffffff1661291982611624565b73ffffffffffffffffffffffffffffffffffffffff1614612985576040517f08c379a00000000000000000000000000000000000000000000000000000000081526004018080602001828103825260298152602001806134596029913960400191505060405180910390fd5b600073ffffffffffffffffffffffffffffffffffffffff168273ffffffffffffffffffffffffffffffffffffffff161415612a0b576040517f08c379a00000000000000000000000000000000000000000000000000000000081526004018080602001828103825260248152602001806133526024913960400191505060405180910390fd5b612a1481613030565b612a5b600360008573ffffffffffffffffffffffffffffffffffffffff1673ffffffffffffffffffffffffffffffffffffffff1681526020019081526020016000206130ee565b612aa2600360008473ffffffffffffffffffffffffffffffffffffffff1673ffffffffffffffffffffffffffffffffffffffff168152602001908152602001600020613111565b816001600083815260200190815260200160002060006101000a81548173ffffffffffffffffffffffffffffffffffffffff021916908373ffffffffffffffffffffffffffffffffffffffff160217905550808273ffffffffffffffffffffffffffffffffffffffff168473ffffffffffffffffffffffffffffffffffffffff167fddf252ad1be2c89b69c2b068fc378daa952ba7f163c4a11628f55a4df523b3ef60405160405180910390a4505050565b6000612bac6001600560008673ffffffffffffffffffffffffffffffffffffffff1673ffffffffffffffffffffffffffffffffffffffff1681526020019081526020016000208054905061312790919063ffffffff16565b9050600060066000848152602001908152602001600020549050818114612c99576000600560008673ffffffffffffffffffffffffffffffffffffffff1673ffffffffffffffffffffffffffffffffffffffff1681526020019081526020016000208381548110612c1957fe5b9060005260206000200154905080600560008773ffffffffffffffffffffffffffffffffffffffff1673ffffffffffffffffffffffffffffffffffffffff1681526020019081526020016000208381548110612c7157fe5b9060005260206000200181905550816006600083815260200190815260200160002081905550505b600560008573ffffffffffffffffffffffffffffffffffffffff1673ffffffffffffffffffffffffffffffffffffffff168152602001908152602001600020805480919060019003612ceb91906132a3565b5050505050565b600560008373ffffffffffffffffffffffffffffffffffffffff1673ffffffffffffffffffffffffffffffffffffffff168152602001908152602001600020805490506006600083815260200190815260200160002081905550600560008373ffffffffffffffffffffffffffffffffffffffff1673ffffffffffffffffffffffffffffffffffffffff1681526020019081526020016000208190806001815401808255809150509060018203906000526020600020016000909192909190915055505050565b600080823b905060008111915050919050565b600073ffffffffffffffffffffffffffffffffffffffff168273ffffffffffffffffffffffffffffffffffffffff161415612e6f576040517f08c379a00000000000000000000000000000000000000000000000000000000081526004018080602001828103825260208152602001807f4552433732313a206d696e7420746f20746865207a65726f206164647265737381525060200191505060405180910390fd5b612e788161250f565b15612eeb576040517f08c379a000000000000000000000000000000000000000000000000000000000815260040180806020018281038252601c8152602001807f4552433732313a20746f6b656e20616c7265616479206d696e7465640000000081525060200191505060405180910390fd5b816001600083815260200190815260200160002060006101000a81548173ffffffffffffffffffffffffffffffffffffffff021916908373ffffffffffffffffffffffffffffffffffffffff160217905550612f84600360008473ffffffffffffffffffffffffffffffffffffffff1673ffffffffffffffffffffffffffffffffffffffff168152602001908152602001600020613111565b808273ffffffffffffffffffffffffffffffffffffffff16600073ffffffffffffffffffffffffffffffffffffffff167fddf252ad1be2c89b69c2b068fc378daa952ba7f163c4a11628f55a4df523b3ef60405160405180910390a45050565b6007805490506008600083815260200190815260200160002081905550600781908060018154018082558091505090600182039060005260206000200160009091929091909150555050565b600073ffffffffffffffffffffffffffffffffffffffff166002600083815260200190815260200160002060009054906101000a900473ffffffffffffffffffffffffffffffffffffffff1673ffffffffffffffffffffffffffffffffffffffff16146130eb5760006002600083815260200190815260200160002060006101000a81548173ffffffffffffffffffffffffffffffffffffffff021916908373ffffffffffffffffffffffffffffffffffffffff1602179055505b50565b6131066001826000015461312790919063ffffffff16565b816000018190555050565b6001816000016000828254019250508190555050565b60008282111561319f576040517f08c379a000000000000000000000000000000000000000000000000000000000815260040180806020018281038252601e8152602001807f536166654d6174683a207375627472616374696f6e206f766572666c6f77000081525060200191505060405180910390fd5b600082840390508091505092915050565b60405180610100016040528060008152602001606081526020016060815260200160608152602001600073ffffffffffffffffffffffffffffffffffffffff16815260200160008152602001600073ffffffffffffffffffffffffffffffffffffffff1681526020016000151581525090565b828054600181600116156101000203166002900490600052602060002090601f016020900481019282601f1061326457805160ff1916838001178555613292565b82800160010185558215613292579182015b82811115613291578251825591602001919060010190613276565b5b50905061329f91906132cf565b5090565b8154818355818111156132ca578183600052602060002091820191016132c991906132cf565b5b505050565b6132f191905b808211156132ed5760008160009055506001016132d5565b5090565b9056fe455243373231456e756d657261626c653a206f776e657220696e646578206f7574206f6620626f756e64734552433732313a207472616e7366657220746f206e6f6e20455243373231526563656976657220696d706c656d656e7465724552433732313a207472616e7366657220746f20746865207a65726f20616464726573734552433732313a206f70657261746f7220717565727920666f72206e6f6e6578697374656e7420746f6b656e4552433732313a20617070726f76652063616c6c6572206973206e6f74206f776e6572206e6f7220617070726f76656420666f7220616c6c4552433732313a2062616c616e636520717565727920666f7220746865207a65726f20616464726573734552433732313a206f776e657220717565727920666f72206e6f6e6578697374656e7420746f6b656e4552433732313a20617070726f76656420717565727920666f72206e6f6e6578697374656e7420746f6b656e4552433732313a207472616e73666572206f6620746f6b656e2074686174206973206e6f74206f776e4552433732314d657461646174613a2055524920717565727920666f72206e6f6e6578697374656e7420746f6b656e4552433732313a20617070726f76616c20746f2063757272656e74206f776e65724552433732313a207472616e736665722063616c6c6572206973206e6f74206f776e6572206e6f7220617070726f766564455243373231456e756d657261626c653a20676c6f62616c20696e646578206f7574206f6620626f756e6473a165627a7a72305820ccaa09d1c1d4f7b13d428dab3a729b05a5c91b0b5c1d308968216259d34591ea0029",
  "source": "pragma solidity ^0.5.0;\n\nimport \"zeppelin/contracts/token/ERC721/ERC721Full.sol\";\n\n\n/// @title A trading platform for digital art\n/// @author Manank Patni\n/// @notice The contract create a platform for the digital art trading and showcase\n/// @dev The contract inherits ERC721 token to implement NFT\ncontract Collectibles is ERC721Full {\n\n\n    address payable public contract_owner;\n\n    bool private stop = true;\n\n    modifier contractOwner{\n        require(msg.sender == contract_owner);\n        _;\n    }\n\n    modifier paidEnough(uint _price){\n        require(_price <= msg.value);\n        _;\n    }\n\n    modifier onSale(uint id){\n        require(art_list[id].onsale == true);\n        _;\n    }\n\n    modifier onlyOwner(uint id){\n        require(art_list[id].owner == msg.sender);\n        _;\n    }\n\n    modifier stopFunctioning{\n        require(stop == true);\n        _;\n    }\n\n    event AddArt(uint artid);\n    event SwitchSaleStatus(uint artid, bool status); \n\n    struct Art{\n        uint id;\n        string name;\n        string description;\n        string image;\n        address payable artist;\n        uint price;\n        address payable owner;\n        bool onsale;\n    }\n    \n    Art[] private art_list;\n\n    /// @dev Makes the contract deployer as owner, set Token Symbol and Name\n    constructor() ERC721Full(\"DigArt\", \"DAC\") public {\n        contract_owner = msg.sender;\n    }\n\n    /// @notice Owner can disable the app temporarily in case of emergency\n    /// @dev Creates a circuit breaker in case of unprecedented bugs, switches on and off\n    function switchContractWorking() public contractOwner{\n        if(stop == true){\n            stop = false;\n        }\n        else{\n            stop = true;\n        }\n    }\n\n    /// @dev Returns the number total number of tokens\n    /// @return count in integers\n    function getartlength() public view returns (uint) {\n        uint count = art_list.length;\n        return count;\n    }\n\n    /// @dev Get a particular token by id\n    /// @param id of token\n    /// @return Returns id, name, description, image, artist, price, owner, onsaleornot\n    function getArt(uint id) public view returns (uint, string memory, string memory, string memory, address, uint, address, bool) {\n        Art memory a = art_list[id];\n        return (id, a.name, a.description, a.image, a.artist, a.price, a.owner, a.onsale);\n    }\n\n    /// @dev Convert a digital art to NFT\n    /// @param name Name of the Token\n    /// @param desc Short description of the collectibles\n    /// @param image_url IPFS url of the image\n    /// @param price Collectibe sell price\n    /// @return id of minted token\n    function convert_art(string memory name, string memory desc, string memory image_url, uint price) public stopFunctioning{\n        uint id = art_list.length;\n        art_list.push(Art(id,name,desc,image_url,msg.sender,price,msg.sender,false));\n        _mint(msg.sender,id);\n        emit AddArt(id);\n    }\n\n    /// @dev Returns the tokens ids for particular owner, uses ERC721 _tokensofOwner\n    /// @param _owner Takes address of owner\n    /// @return count of integers of ids\n    function ownerArtsCount(address _owner) public view returns(uint[] memory){\n        return _tokensOfOwner(_owner);\n    }\n\n    /// @notice Transfer the amount equal to price and transfers the ownership of token\n    /// @dev Uses _transferFrom of the ERC721 implementation\n    /// @param id of token\n    function buy_art(uint id) public payable paidEnough(art_list[id].price) onSale(id) stopFunctioning{\n        address payable _owner = art_list[id].owner;\n        art_list[id].onsale = false;\n        _owner.transfer(msg.value);\n        art_list[id].owner = msg.sender;\n        _transferFrom(_owner, msg.sender, id);\n    }\n\n    /// @dev Update price of Token\n    /// @param id Token Id\n    /// @param price Price of the collectible\n    function price_update(uint id, uint price) public onlyOwner(id){\n        art_list[id].price = price;\n    }\n\n    /// @notice Switch a digital art on/off sale\n    /// @dev Only the owner of token can switch this status\n    /// @param id Id of the token\n    function switchSaleStatus(uint id) public onlyOwner(id){\n        bool status = art_list[id].onsale;\n        if(status == true){\n            art_list[id].onsale = false;\n        }\n        else{\n            art_list[id].onsale = true;\n        }\n\n        emit SwitchSaleStatus(id, status);\n    }\n}\n",
  "sourcePath": "/home/manjain/Documents/Crypta-DigitalArt-Collectibles/contracts/Collectibles.sol",
  "compiler": {
    "name": "solc",
    "version": "0.5.8+commit.23d335f2.Emscripten.clang"
  },
  "schemaVersion": "3.0.15",
  "updatedAt": "2019-09-06T17:05:23.414Z",
  "devdoc": {
    "author": "Manank Patni",
    "details": "The contract inherits ERC721 token to implement NFT",
    "methods": {
      "approve(address,uint256)": {
        "details": "Approves another address to transfer the given token ID The zero address indicates there is no approved address. There can only be one approved address per token at a given time. Can only be called by the token owner or an approved operator.",
        "params": {
          "to": "address to be approved for the given token ID",
          "tokenId": "uint256 ID of the token to be approved"
        }
      },
      "balanceOf(address)": {
        "details": "Gets the balance of the specified address.",
        "params": {
          "owner": "address to query the balance of"
        },
        "return": "uint256 representing the amount owned by the passed address"
      },
      "buy_art(uint256)": {
        "details": "Uses _transferFrom of the ERC721 implementation",
        "params": {
          "id": "of token"
        }
      },
      "constructor": {
        "details": "Makes the contract deployer as owner, set Token Symbol and Name"
      },
      "convert_art(string,string,string,uint256)": {
        "details": "Convert a digital art to NFT",
        "params": {
          "desc": "Short description of the collectibles",
          "image_url": "IPFS url of the image",
          "name": "Name of the Token",
          "price": "Collectibe sell price"
        },
        "return": "id of minted token"
      },
      "getApproved(uint256)": {
        "details": "Gets the approved address for a token ID, or zero if no address set Reverts if the token ID does not exist.",
        "params": {
          "tokenId": "uint256 ID of the token to query the approval of"
        },
        "return": "address currently approved for the given token ID"
      },
      "getArt(uint256)": {
        "details": "Get a particular token by id",
        "params": {
          "id": "of token"
        },
        "return": "Returns id, name, description, image, artist, price, owner, onsaleornot"
      },
      "getartlength()": {
        "details": "Returns the number total number of tokens",
        "return": "count in integers"
      },
      "isApprovedForAll(address,address)": {
        "details": "Tells whether an operator is approved by a given owner.",
        "params": {
          "operator": "operator address which you want to query the approval of",
          "owner": "owner address which you want to query the approval of"
        },
        "return": "bool whether the given operator is approved by the given owner"
      },
      "name()": {
        "details": "Gets the token name.",
        "return": "string representing the token name"
      },
      "ownerArtsCount(address)": {
        "details": "Returns the tokens ids for particular owner, uses ERC721 _tokensofOwner",
        "params": {
          "_owner": "Takes address of owner"
        },
        "return": "count of integers of ids"
      },
      "ownerOf(uint256)": {
        "details": "Gets the owner of the specified token ID.",
        "params": {
          "tokenId": "uint256 ID of the token to query the owner of"
        },
        "return": "address currently marked as the owner of the given token ID"
      },
      "price_update(uint256,uint256)": {
        "details": "Update price of Token",
        "params": {
          "id": "Token Id",
          "price": "Price of the collectible"
        }
      },
      "safeTransferFrom(address,address,uint256)": {
        "details": "Safely transfers the ownership of a given token ID to another address If the target address is a contract, it must implement `onERC721Received`, which is called upon a safe transfer, and return the magic value `bytes4(keccak256(\"onERC721Received(address,address,uint256,bytes)\"))`; otherwise, the transfer is reverted. Requires the msg.sender to be the owner, approved, or operator",
        "params": {
          "from": "current owner of the token",
          "to": "address to receive the ownership of the given token ID",
          "tokenId": "uint256 ID of the token to be transferred"
        }
      },
      "safeTransferFrom(address,address,uint256,bytes)": {
        "details": "Safely transfers the ownership of a given token ID to another address If the target address is a contract, it must implement `onERC721Received`, which is called upon a safe transfer, and return the magic value `bytes4(keccak256(\"onERC721Received(address,address,uint256,bytes)\"))`; otherwise, the transfer is reverted. Requires the msg.sender to be the owner, approved, or operator",
        "params": {
          "_data": "bytes data to send along with a safe transfer check",
          "from": "current owner of the token",
          "to": "address to receive the ownership of the given token ID",
          "tokenId": "uint256 ID of the token to be transferred"
        }
      },
      "setApprovalForAll(address,bool)": {
        "details": "Sets or unsets the approval of a given operator An operator is allowed to transfer all tokens of the sender on their behalf.",
        "params": {
          "approved": "representing the status of the approval to be set",
          "to": "operator address to set the approval"
        }
      },
      "supportsInterface(bytes4)": {
        "details": "See `IERC165.supportsInterface`.     * Time complexity O(1), guaranteed to always use less than 30 000 gas."
      },
      "switchContractWorking()": {
        "details": "Creates a circuit breaker in case of unprecedented bugs, switches on and off"
      },
      "switchSaleStatus(uint256)": {
        "details": "Only the owner of token can switch this status",
        "params": {
          "id": "Id of the token"
        }
      },
      "symbol()": {
        "details": "Gets the token symbol.",
        "return": "string representing the token symbol"
      },
      "tokenByIndex(uint256)": {
        "details": "Gets the token ID at a given index of all the tokens in this contract Reverts if the index is greater or equal to the total number of tokens.",
        "params": {
          "index": "uint256 representing the index to be accessed of the tokens list"
        },
        "return": "uint256 token ID at the given index of the tokens list"
      },
      "tokenOfOwnerByIndex(address,uint256)": {
        "details": "Gets the token ID at a given index of the tokens list of the requested owner.",
        "params": {
          "index": "uint256 representing the index to be accessed of the requested tokens list",
          "owner": "address owning the tokens list to be accessed"
        },
        "return": "uint256 token ID at the given index of the tokens list owned by the requested address"
      },
      "tokenURI(uint256)": {
        "details": "Returns an URI for a given token ID. Throws if the token ID does not exist. May return an empty string.",
        "params": {
          "tokenId": "uint256 ID of the token to query"
        }
      },
      "totalSupply()": {
        "details": "Gets the total amount of tokens stored by the contract.",
        "return": "uint256 representing the total amount of tokens"
      },
      "transferFrom(address,address,uint256)": {
        "details": "Transfers the ownership of a given token ID to another address. Usage of this method is discouraged, use `safeTransferFrom` whenever possible. Requires the msg.sender to be the owner, approved, or operator.",
        "params": {
          "from": "current owner of the token",
          "to": "address to receive the ownership of the given token ID",
          "tokenId": "uint256 ID of the token to be transferred"
        }
      }
    },
    "title": "A trading platform for digital art"
  },
  "userdoc": {
    "methods": {
      "buy_art(uint256)": {
        "notice": "Transfer the amount equal to price and transfers the ownership of token"
      },
      "switchContractWorking()": {
        "notice": "Owner can disable the app temporarily in case of emergency"
      },
      "switchSaleStatus(uint256)": {
        "notice": "Switch a digital art on/off sale"
      }
    },
    "notice": "The contract create a platform for the digital art trading and showcase"
  }
}